:020000040000FA
:100000000C94E8030C9419040C9419040C9419042E
:100010000C9419040C9419040C9419040C941904EC
:100020000C9419040C9419040C9419040C941904DC
:100030000C9419040C9419040C9419040C941904CC
:100040000C9419040C9419040C9419040C941904BC
:100050000C9419040C9419040C9419040C945F1C4E
:100060000C9419040C94D31C0C94A91C0C94190422
:100070000C9419040C9419040C9419040C9419048C
:100080000C9419040C9419040C9419040C9419047C
:100090000C9419040C9419040C9419040C94091D63
:1000A0000C9419040C9419040C9419040C9419045C
:1000B0000C9419040C9419040C9419040C9419044C
:1000C0000C9419040C9419040C9419040C9419043C
:1000D0000C9419040C9419040C9419040C9419042C
:1000E0000C9419040C946F070C9486120C946511EF
:1000F0000C94B6050C9499060C9403090C946412A4
:100100000C94E6070C94C0040C943B080C94D6168F
:100110000C9405050C94C6040C94E5040C94670734
:100120000C94CA040C946D080C94CC170C94ED0438
:100130000C9464110C94C5070C94030C0C94E90402
:100140000C9400050C94120B0C946B070C94E008B3
:100150000C94D2040C9414060C9463110C94EE08C5
:100160000C94D8080C946D070C945E1A0C94F50846
:100170000C94F3040C948D120C941B040C948614B0
:100180000C9461070C94F7040C9465070C94940488
:100190000C94E7080C94DB040C947B1E0C94080D63
:1001A0000C944C060C94E6190C9463120C9463079F
:1001B0000C94D7160C94C1080C947D0C0C94F20589
:1001C0000C94E3050C9483080C94CE040C94010564
:1001D0000C94EA060C941E070C943C070C946D0CCE
:1001E0000C94BA120C9406060C94FC080C9425048A
:1001F0000C9473120C9469070C941A080C94FB0469
:100200000C94DF040C940B090C9471180C945E147C
:100210000C94930A0C94FB130C940A090C94D504C7
:1002200000002100240027002A002D0030003300A8
:1002300001010000040107010A010000220025005D
:1002400028002B002E0031003400020100000501BF
:1002500008010B01000020002300260029002C00CB
:100260002F0032000001000003010601090105050D
:100270000505070508080808020202020A0A08081C
:10028000040404040101010101010101030303034A
:1002900003030303040707070C0C0C0C0C0C0C0CD9
:1002A0000202020206060606060606060B0B0B0BEA
:1002B0000B0B0B0B0102102020080810204010200F
:1002C000408002010201080402010102040810201A
:1002D0004080804020100804020180040201804018
:1002E0002010080402010804020101020408102081
:1002F0004080010204081020408000000A0B02091F
:100300000C0D0E08070304010000000000000000AF
:1003100000000000000000000000000000000000DD
:10032000000000000000121110000000000000009A
:1003300000000000000000000000000000000000BD
:100340005F00020204040304050C0BFFFE08FE0814
:10035000FE016A032C0471200500CC09210882C427
:10036000C991F2082207336D4BB202231087447CF7
:10037000CAA81C3365548E9932AA012410A53C6B7F
:100380001E2AA938E28849A5A1230025158AC49D03
:10039000D44A655523554995544649E5A8725600F7
:1003A000261188C4AC862A2395A186494B73A4A53F
:1003B000002706316DCA00280BA4B47A8C4ABA759E
:1003C0004601290AA4B44A46D974C91A2A09555CB7
:1003D0006B55AD66042B0B554C6B4671C88C2200D7
:1003E0002C0742B4C9480A2D06135CCA002E062207
:1003F000C4C9082F0A84C47A99638E3903300E85E4
:1004000044DB52238D34D24823A905310984459B0E
:100410009ABE4600320C8544DB52236929F3380228
:10042000330E8544DB5223498D461A492D00340B87
:100430008544EB95549A636439350D8544CB2BA3E1
:1004400091D14823A905360E8544DB52238FA4465B
:100450001A492D00370A8444CBA1638E2E00380E32
:100460008544DB5223A9A5461A492D00390E85443F
:10047000DB52238DA4461E492D003A0752C4C98879
:10048000233B0972B4C9882329003C0956CC3B920E
:1004900036D6583D083554CBD070083E0A56CC8B22
:1004A000C61A4B1B013F0A8544DBB2A5CCB40940F8
:1004B00012A93CFD465A6698E248FE5432939A1EB1
:1004C00011411289433CCAD4C61B468DA21E236625
:1004D000A4E608420E8744CC694935A425951C43FF
:1004E0000143108744ECAA47461B6AA8518DE24895
:1004F00000440F88C4CCADA3565A69A5954E63023B
:10050000450E86C4CB25938A23AA28931C23460E26
:1005100086C4CB25934C2A8EA8A21E11470E874471
:10052000ECAA47461BCAA155962B48128944CD48D0
:100530002369A9E518514B2DB51A6904490984C4EA
:10054000CA48D2D7084A0C86C4EBC81A69E42BCA39
:10055000094B1189C4CC88769619A90C8746525B41
:10056000230E4C0F86C4CBC81A69A4914632C931F8
:10057000024D158B44CEC823ED99549249259954C8
:1005800092D18CD652234E1188C48C5E3ACE38520A
:100590004C23C699D54E004F0E8744ECAEF4C823C9
:1005A0008FAC729E00500F8744CC694925D5901AB4
:1005B0006A3432005113983CEC46396AA5955623AB
:1005C00049A5D148192A00520D88C4CC2D3DF3D03D
:1005D000D235D200530D86C4DB39F2D068E811D78A
:1005E00002540E86C4CB915C51238D34D223015525
:1005F0001088C4CC484B471D75D451479D470456BD
:100600001188C4CC484B479D55462A2395A1C61A4C
:1006100057158B44CE486A4919CDA8928A2AA9BC9D
:1006200036D21A6909581088C4CC484BC795D1C630
:100630001BA599D511591188C4CC484B679591CA0F
:1006400050638D351C115A0B86C4CB91F57CEB3170
:10065000025B08A334CA50FE1A5C0C84C44ACE283C
:10066000679433CA015D08A334CAF2D7105E0A65E5
:10067000546B4679A65A075F061634CB01600623F1
:10068000748A14610954C4CA56238D01620E86C44B
:100690008B461A69641D71C4B50063095544DB9229
:1006A0005BA605640E86C4FB461AA931E288232D99
:1006B0000365095544DB52E34623660C85C4EA52C0
:1006C000498EA8CD9100670D86343B8A5339F7D8FF
:1006D000632400680E86C48B461A69641D71C411B8
:1006E00005690A84C49AD470BA46006A09A3B49A08
:1006F000BDBC46026B0E86448B461A69648D38A2D7
:10070000B2066C0884C4CAF46B046D0D5AC48D9291
:10071000EA11E5887244036E0B56C48B52471C7174
:1007200044016F0C56C4DB4872C411D54800700DEB
:1007300076B48B52471C718CA4D106710E77B4DB52
:10074000505249A5A6D250A311720954C48A1A2343
:100750009A00730954C4DA90230E05740973445A3D
:1007600052439902750B56C48B1C71C49196017645
:100770000B56C4CBB2A2CA1A4900770C5944CDF229
:100780008A4A65A59109780A56C4CBB2B24ED60002
:10079000790D76B4CBB2A2CA1AC9AD11007A085548
:1007A00044CB25CD317B0AA4B4AA9296966E017CE7
:1007B000068146CB217D0AA4B48A96B6922E097E84
:1007C0000726DCDB520B00000004FFFF00007B1E4D
:1007D00011241FBECFEFD1E2DEBFCDBF00E00CBFC2
:1007E00014E0A0E0B2E0EEE5F1E500E00BBF02C0EE
:1007F00007900D92AA38B107D9F720E1AAE8B4E032
:1008000001C01D92A63CB207E1F713E0C8EED3E0A9
:1008100000E006C021970109802FFE010E945627A3
:10082000C73ED10780E00807A9F70E942B210C944E
:10083000AD280C940000662329F06A3019F0862F49
:1008400090E008958FEF9FEF0895AF92BF92CF92FF
:10085000DF92EF92FF920F93CF93DF93EC01DA01D7
:100860007901942F9770E1E0F0E09F01092E01C01B
:10087000220F0A94EAF7522F6E018AE8C80ED11CA3
:10088000F601808140E0823018F4422F813049F136
:100890005D01F8EFAF22E8ADF9AD28813981D901CA
:1008A00050968C918A9D90018B9D300D1124620F82
:1008B000731FDF01A60FB71F01111AC0EA0EFB1E3E
:1008C0008C91842B85278D93AE15BF05C9F7DF91D9
:1008D000CF910F91FF90EF90DF90CF90BF90AF90AE
:1008E000089550E0D5CF440F550FE114F10479F38A
:1008F0003C91342B35273C939F5F9770E1E0EE1AD3
:10090000F1089111F0CF2CAD3DADA20FB31FF60150
:100910008081823028F4813009F051E041E0E5CF58
:1009200051E0E3CF80E0089590E080E00895809367
:10093000761008959B01DC011896ED91FC9141E041
:1009400067E119948150823108F05AC0E82FF0E035
:100950008827E255FB4F8F4F0C945627CE04D204C4
:10096000C004C604CA040005D504DB04DF04E504A2
:10097000E904ED04F304F7040005FB040105050593
:10098000809180008F77809380000895809180000F
:100990008F7DF9CF80918000877FF5CF84B58F77E9
:1009A00084BD089584B58F7DFBCF8091B0008F7793
:1009B0008093B00008958091B0008F7DF9CF809131
:1009C00090008F77809390000895809190008F7DA4
:1009D000F9CF80919000877FF5CF8091A0008F772D
:1009E0008093A00008958091A0008F7DF9CF809121
:1009F000A000877FF5CF809120018F778093200121
:100A00000895809120018F7DF9CF80912001877F0B
:100A1000F5CFCF93DF93282F30E0F901E650FD4F5B
:100A20008491F901EC54FD4FD491F901E259FD4F45
:100A3000C491CC23A1F081110E94A204EC2FF0E01C
:100A4000EE0FFF1FEC5AFD4FA591B491EC91ED23F1
:100A500081E090E009F480E0DF91CF91089580E09B
:100A600090E0FACF1F93CF93DF93282F30E0F90166
:100A7000E650FD4F8491F901EC54FD4FD491F901FA
:100A8000E259FD4FC491CC23A9F0162F81110E9489
:100A9000A204EC2FF0E0EE0FFF1FE65CFD4FA591E6
:100AA000B4918FB7F894EC91111108C0D095DE2362
:100AB000DC938FBFDF91CF911F910895DE2BF8CF8C
:100AC000CF93DF9390E0FC01EC54FD4F24918259C9
:100AD0009D4FFC0184918823D1F090E0880F991FED
:100AE000FC01E05EFD4FA591B491FC01E65CFD4F79
:100AF000C591D491623071F49FB7F8943C91822FE4
:100B0000809583238C93E8812E2B28839FBFDF91D0
:100B1000CF9108958FB7F894EC912E2B2C938FBF23
:100B2000F6CF3FB7F8948091970590919805A091E2
:100B30009905B0919A0526B5A89B05C02F3F19F0DD
:100B40000196A11DB11D3FBFBA2FA92F982F88274D
:100B5000BC01CD01620F711D811D911D42E0660F28
:100B6000771F881F991F4A95D1F70895AF92BF92BA
:100B7000CF92DF92EF92FF920F931F93CF93DF9369
:100B80006C017B018B01040F151FEB015E01AE1898
:100B9000BF08C017D10759F06991D601ED91FC91BA
:100BA0000190F081E02DC6011995892B79F7C501D7
:100BB000DF91CF911F910F91FF90EF90DF90CF9039
:100BC000BF90AF900895FC01538D448D252F30E0E8
:100BD000842F90E0821B930B541710F0CF9608954A
:100BE00001970895FC01918D828D981761F0A28D77
:100BF000AE0FBF2FB11D5D968C91928D9F5F9F733D
:100C0000928F90E008958FEF9FEF0895FC01918DF2
:100C1000828D981731F0828DE80FF11D858D90E05F
:100C200008958FEF9FEF0895FC01918D228D892FFC
:100C300090E0805C9F4F821B91098F7399270895E4
:100C40008BE995E00E94140621E0892B09F420E04D
:100C5000822F0895FC01A48DA80FB92FB11DA35AAE
:100C6000BF4F2C91848D90E001968F739927848FCC
:100C7000A689B7892C93A089B1898C9183708064EF
:100C80008C93938D848D981306C00288F389E02D90
:100C900080818F7D80830895EF92FF920F931F9341
:100CA000CF93DF93EC0181E0888F9B8D8C8D98131F
:100CB0001AC0E889F989808185FF15C09FB7F8942B
:100CC000EE89FF896083E889F98980818370806477
:100CD00080839FBF81E090E0DF91CF911F910F91C2
:100CE000FF90EF900895F62E0B8D10E00F5F1F4FD1
:100CF0000F731127E02E8C8D8E110CC00FB607FCE0
:100D0000FACFE889F989808185FFF5CFCE010E946D
:100D10002A06F1CFEB8DEC0FFD2FF11DE35AFF4FAB
:100D2000F0829FB7F8940B8FEA89FB8980818062FB
:100D3000CFCFCF93DF93EC01888D8823B9F0AA89B8
:100D4000BB89E889F9898C9185FD03C0808186FD86
:100D50000DC00FB607FCF7CF8C9185FFF2CF8081D5
:100D600085FFEDCFCE010E942A06E9CFDF91CF911A
:100D7000089580E090E0892B29F00E9420068111DF
:100D80000E94000080E090E0892B49F080E090E034
:100D9000892B29F00E94000081110E94000080E050
:100DA00090E0892B49F080E090E0892B29F00E94A7
:100DB000000081110E94000080E090E0892B49F042
:100DC00080E090E0892B29F00E94000081110C94B2
:100DD00000000895CF93DF93FC012781222359F16E
:100DE000EC0161E080850E94600561E089850E94D8
:100DF00060058F81843011F08830B1F461E08A851C
:100E00000E94600561E08B850E9460058FA58F3F81
:100E100091F061E00E9460056EA581E068278FA5D2
:100E2000DF91CF910C943205833011F0863071F749
:100E300061E08A85E9CFDF91CF910895CF93DF9369
:100E4000FC0127812223A9F0EC010190F081E02D23
:100E50000284F385E02D60E019958FA58F3F49F05E
:100E600061E00E9460056EA58FA5DF91CF910C9483
:100E70003205DF91CF910895DC01ED91FC9111973E
:100E800022853385477055276627772741505109BA
:100E900061097109473051056105710570F4FA0166
:100EA0008827EA5AF84F8F4F0C945627610763073B
:100EB0006507670769076B076D0761E0CD01F901F9
:100EC000199465E0FBCF64E0F9CF66E0F7CF62E00C
:100ED000F5CF6AE0F3CF68E0F1CF69E0EFCFCF93D1
:100EE000DF93EC01CB01BA0126E030E040E050E0B6
:100EF0000E943727623071058105910589F16CF4F4
:100F00006115710581059105D1F06130710581058B
:100F10009105F9F0DF91CF91089564307105810555
:100F2000910561F124F1653071058105910591F715
:100F3000E881F9810284F385E02D66E006C0E8814E
:100F4000F9810284F385E02D64E0CE01DF91CF9139
:100F50001994E881F9810284F385E02D65E0F5CFED
:100F6000E881F9810284F385E02D61E0EECFE8812C
:100F7000F9810284F385E02D63E0E7CFE881F98110
:100F80000284F385E02D62E0E0CFDC01ED91FC917D
:100F90000284F385E02D437055276627772742307A
:100FA00051056105710571F0433051056105710509
:100FB00059F0413051056105710511F065E0199452
:100FC00066E0FDCF6AE0FBCF69E0F9CFCF93DF9316
:100FD000EC01CB01BA0123E030E040E050E00E9498
:100FE0003727613071058105910599F062307105EF
:100FF00081059105A9F0672B682B692BC1F4E88165
:10100000F9810284F385E02D64E0CE01DF91CF9178
:101010001994E881F9810284F385E02D61E0F5CF30
:10102000E881F9810284F385E02D62E0EECFDF9163
:10103000CF910895DC01ED91FC910284F385E02DC0
:1010400043705527662777274230510561057105A2
:1010500071F0433051056105710559F0413051057A
:101060006105710511F062E0199463E0FDCF61E064
:10107000FBCF60E0F9CFCF93DF93EC01E881F981FA
:101080000284F385E02D8A8160E0811162E0CE0167
:101090001995E881F9810284F385E02D8A8161E068
:1010A000811163E0CE0119958CA59DA58230910533
:1010B00038F0880F991F880F991F05970197F1F74E
:1010C000E881F9810284F385E02D8A8160E0811155
:1010D00062E0CE01DF91CF911994CF93DF93EC01C1
:1010E00020E030E0A901688D798D8A8D9B8D0E946A
:1010F000432618162CF4E8A9F9A9DF91CF91199489
:10110000EAA9FBA9FACFCF92DF92EF92FF920F9359
:101110001F93CF93DF93DC011796CC91C43039F045
:10112000C83059F1C33019F0C63049F1C2E08C0122
:10113000085F1F4FF12CE12CC62ED12CD1E0F80115
:101140006481C6010E2C02C0959587950A94E2F73A
:1011500080FD6D270F5F1F4F80810E943205BFEF1A
:10116000EB1AFB0AEC1658F3DF91CF911F910F9108
:10117000FF90EF90DF90CF900895C4E0D8CFC3E008
:10118000D6CFDC011796EC911797E93008F042C0F2
:10119000F0E08827E153F74F8F4F0C945627D8087B
:1011A000E008E708EE08F5080A09FC080A0903093F
:1011B000ED91FC9111970684F785E02DCD011994EE
:1011C000ED91FC9111970088F189E02DF7CFED9119
:1011D000FC9111970288F389E02DF0CFED91FC91FD
:1011E00011970488F589E02DE9CFED91FC911197D5
:1011F0000688F789E02DE2CFED91FC911197008CE4
:10120000F18DE02DDBCFED91FC911197028CF38DE8
:10121000E02DD4CF08954F925F926F927F928F927C
:101220009F92AF92BF92CF92DF92EF92FF920F9375
:101230001F93CF93DF93EC01CC88DD88EE88FF8885
:1012400088899989AA89BB89C81AD90AEA0AFB0A36
:10125000688D798D8A8D9B8D9B01AC010E944826FB
:101260004B015C0168A179A18AA19BA19B01AC0102
:101270000E9478249B01AC01C501B4010E94E924BD
:101280000E945B25C114D104E104F10409F0B6C049
:1012900062307105810591050CF0D0C01B821C8263
:1012A0001D821E82188E198E1A8E1B8E1CAA1DAAD4
:1012B0001EAA1FAAC12CD12C7601C701B601DF914D
:1012C000CF911F910F91FF90EF90DF90CF90BF9043
:1012D000AF909F908F907F906F905F904F90089508
:1012E0001016110612061306B4F46C157D058E0552
:1012F0009F051CF42A812111A1C09B01AC01882704
:101300009927DC01821B930BA40BB50B8CAB9DAB17
:10131000AEABBFAB93C0011511052105310509F432
:101320008DC06C157D058E059F050CF087C08A81E8
:10133000882309F483C030952095109501951F4F9F
:101340002F4F3F4F0CAB1DAB2EAB3FAB77C0011502
:1013500011052105310509F471C08824992454012F
:101360008C189D08AE08BF08681579058A059B058D
:101370000CF064C08A81811161C0DDCFCCACDDACE2
:10138000EEACFFACA7019601C701B6010E9478241C
:101390002B013C01C501B4010E94932520E030E0FF
:1013A00040E850E40E94482620E030E040E85FE357
:1013B0000E9478249B01AC01C301B2010E94E92480
:1013C0009B01AC01C701B6010E9477243B016C016F
:1013D000FE01E05CFF4FE080F18002811381970104
:1013E000A8010E944326181614F473018601C70150
:1013F000D8018CAF9DAFAEAFBFAF3AC00CA91DA94D
:101400002EA93FA91C141D041E041F040CF468CF50
:1014100010161106120613060CF099CF002711279B
:1014200098010C191D092E093F09601771078207E1
:1014300093070CF062CF2A8121115FCF8CA89DA861
:10144000AEA8BFA881149104A104B10409F096CFFD
:1014500088AD99ADAAADBBAD8CAF9DAFAEAFBFAF00
:1014600081E01C141D041E041F040CF080E08A831C
:101470003FEF831A930AA30AB30A8CAA9DAAAEAAC5
:10148000BFAA8CAC9DACAEACBFACC501B4010E9490
:1014900062256B017C01CB82DC82ED82FE82A5019C
:1014A000940160E074E284E799E40E94E924688F83
:1014B000798F8A8F9B8F2A812111FFCE9058688F58
:1014C000798F8A8F9B8FF9CECF92DF92EF92FF9226
:1014D000CF93DF93CEE7D0E1688D798D8A8D9B8D98
:1014E0009B01AC010E9448266B017C0168A179A197
:1014F0008AA19BA19B01AC010E9478249B01AC01B5
:10150000C701B6010E94E9240E945B256CAB7DAB4C
:101510008EAB9FABCE01DF91CF91FF90EF90DF902C
:10152000CF900C940B090895DC011A96ED91FC9173
:1015300030E020E01994DC011696ED91FC9130E04A
:1015400020E040E069E11994DC011696ED91FC91F0
:1015500030E020E040E068E119949A01DC01169641
:10156000ED91FC91462F67E11994EF92FF920F9352
:101570001F93CF93DF931F92CDB7DEB77C018B0112
:10158000D8016C91673129F150F46531A0F40F90C6
:10159000DF91CF911F910F91FF90EF9008956A31E5
:1015A00018F16E3FA1F7F8014181498369E2C70153
:1015B0000E94940A0BC0F80141814983D701169615
:1015C000ED91FC9130E020E0C70119950E5F1F4FAF
:1015D000D7CFF80181818983AE014F5F5F4F61E012
:1015E000C7010E94AD0AF2CF0F5F1F4FD7011696B9
:1015F000ED91FC9130E020E040E0C7011995C0CFAB
:10160000462FDC011696ED91FC9130E020E066E17A
:101610001994462FDC011696ED91FC9130E020E004
:1016200065E11994EF92FF920F931F93CF93DF938D
:10163000EC01042F79016D3009F442C050F46B3095
:10164000A9F1693009F49BC06A3009F461C080E0F7
:1016500042C06E3009F44EC06F3099F70E94A40A60
:10166000F7011381110F110F110F6C89160F612FE4
:1016700062956F706061CE010E94090B612F6F70DF
:10168000CE010E94090BF7016481606BCE010E94BC
:10169000090BF701408151816281660F660F660F69
:1016A000CE010E94AD0A0150A1F72EC061E173E0A6
:1016B000442311F06CE073E0CE010E94B50A0AC029
:1016C000411110C065E073E00E94B50AE881F9811C
:1016D00082898C8B81E0DF91CF911F910F91FF90D8
:1016E000EF9008956EEF72E00E94B50AE881F981EB
:1016F0008389EFCF0E94A40A61E8CE010E94090B02
:10170000602FCE010E94000BCE010E949B0AE2CF07
:10171000EA85FB8530E020E040E068E2CE011995E3
:10172000EE81FF8130E020E040E064E1CE011995D8
:1017300041E06BE4CE010E94940AE881F981448182
:1017400069E2CE010E94940A40E06BE4CE010E945F
:10175000940AE881F981448169E2CE010E94940AE9
:1017600041E06BE4CE010E94940AE881F981458151
:1017700069E2CE010E94940A66E173E09DCF83E4A2
:1017800093E0998388831C8AA5CFDC011896ED919C
:10179000FC9130E020E040E069E11994DC0118960A
:1017A000ED91FC9130E020E040E068E11994CF93A6
:1017B000DF931F92CDB7DEB76983BE016F5F7F4FA6
:1017C0000E949A040F90DF91CF910895EF92FF92BB
:1017D0001F93CF93DF93EC01162F7A010E94CE0B5B
:1017E00060E4CE010E94D70BE885F9859701412F6F
:1017F00067E1CE011995CE01DF91CF911F91FF9046
:10180000EF900C94C50BEF92FF921F93CF93DF9351
:10181000EC01142F7901663181F138F4643109F457
:101820004BC0653179F080E022C06831C9F150F1D8
:101830006931C9F780916805882391F1CE010E9432
:10184000C50B2EC080916805882319F0CE010E9437
:10185000C50BCE010E94CE0B60E0CE010E94D70BDB
:10186000612FCE010E94D70B81E080936805DF9144
:10187000CF911F91FF90EF900895642F0E94D70B96
:1018800081E0F5CF80916805882319F0CE010E9490
:10189000C50BA701193138F4612FCE010E94E60B68
:1018A00010926805EDCF68E1CE010E94E60B185159
:1018B00088E1E80EF11CEDCF8E898F3F11F488E7A7
:1018C0008E8BE885F9859701412F64E1CE01DF9188
:1018D000CF911F91FF90EF9019940F93FC01E05C62
:1018E000FF4F0190F081E02D4E1B5F0BDC01D49681
:1018F000ED91FC9119950F910895CF93DF93FC0121
:10190000A081B18182AD90E09C0143E0220F331FA2
:101910004A95E1F737AF26AF50962C91509748E0A3
:10192000249F9001112435AF24AF23AD30E0B901DD
:1019300053E0660F771F5A95E1F7EF01C05CDF4F68
:101940007983688351964C915197E901C80FD91F4B
:1019500050E04C175D0718F4CA01821B930BEF018E
:10196000CE5BDF4F79836883229623E0880F991F2F
:101970002A95E1F7860F971F9983888322965496BC
:101980008D919C91559799838883E85BFF4F56967C
:101990008D919C9191838083DF91CF9108950F93D6
:1019A0001F93FC01E25BFF4F0190F081E02DDC0111
:1019B000A05BBF4F0D90BC91A02D4A175B0740F470
:1019C000E017F10748F00417150730F080E019C060
:1019D000E017F107C0F3FACFFC01E65BFF4F40814F
:1019E0005181845B9F4FFC01808191816817790749
:1019F00058F481E04217530720F081E0261737079B
:101A000028F71F910F91089542175307B0F3DECFC7
:101A10002F923F924F925F926F927F928F929F92FE
:101A2000AF92BF92CF92DF92EF92FF920F931F93EC
:101A3000CF93DF9300D000D000D01F92CDB7DEB798
:101A40009A878987865B9F4F9A838983FC011182DD
:101A50001082E985FA85EA5BFF4F40805180298535
:101A60003A85245B3F4F3C832B83F90151824082AE
:101A7000E985FA85EE5BFF4F2080318029853A8524
:101A8000225B3F4F3E832D83F90131822082E9851D
:101A9000FA85EC5BFF4F6080718029853A85205B79
:101AA0003F4F38872F83F90171826082E985FA857B
:101AB000E85AFF4FE080F180E985FA85EC5AFF4F44
:101AC000A080B180E985FA85EA5AFF4FC080D180B5
:101AD000E985FA85EE5AFF4F808091808701950154
:101AE000A601B40189859A850E94CF0C29853A8583
:101AF0002C573F4F3A87298781111BC0F90110826B
:101B00002A960FB6F894DEBF0FBECDBFDF91CF91FE
:101B10001F910F91FF90EF90DF90CF90BF90AF900B
:101B20009F908F907F906F905F904F903F902F90FD
:101B3000089581E0E985FA8580838114910421F07C
:101B4000E981FA8191828082A414B50420F4EB81AA
:101B5000FC81B182A0822C143D0420F4ED81FE8131
:101B6000D182C082E614F70458F6EF81F885F1823D
:101B7000E082C6CF0F93CF93DF93E02FDC01AC5709
:101B8000BF4FFC91FF2309F460C02115310509F412
:101B90005CC02230310538F0023009F04AC06F5F76
:101BA0007F4F621B730B0E2F0170E0FD52C0FC01D2
:101BB000E25BFF4F0190F081E02D4E175F0708F4C4
:101BC00044C0FC01E05BFF4F0190F081E02D4E1717
:101BD0005F07D8F5FC01E45BFF4F0190F081E02D39
:101BE000DC01A65BBF4F0D90BC91A02D260F371FC7
:101BF0002617370738F56E177F0718F59F01215014
:101C00003109A217B30708F56A177B0708F4BD016D
:101C10002E173F0708F4F901E61BF70BEC01AEA9FC
:101C2000BFA914960D90BC91A02D9F01FD0119959F
:101C30000CC0033009F0B7CF4F5F5F4F421B530B0F
:101C4000B2CFBD016E177F07E0F2DF91CF910F9108
:101C50000895FC01E65BFF4F0190F081E02D6E17C7
:101C60007F0798F3FC01E45BFF4F0190F081E02DCA
:101C70006E177F0750F7FC01E05BFF4F0190F0818A
:101C8000E02DDC01A25BBF4F0D90BC91A02D240F75
:101C9000351F24173507A8F44E175F0788F49F01F6
:101CA00021503109A217B30780F64A175B0708F4E1
:101CB000AD012E173F0708F4F901E41BF50BAECF79
:101CC000AD014E175F0708F6EDCFEF92FF920F932D
:101CD0001F93CF93DF93EC017C018CE0E80EF11CA5
:101CE000870120E830E0AE0170E060E08CEE9FE01C
:101CF0000E94CF0C882371F000E020E830E0AE01B4
:101D000070E060E08CEE9FE00E94BA0D2196EC1628
:101D1000FD0691F7DF91CF911F910F91FF90EF900A
:101D200008950F9320913A1030913B10621773077A
:101D3000F0F020913C1030913D1062177307B8F419
:101D400020913610309137108217930780F0209140
:101D50003810309139108217930748F4AB01BC0159
:101D600000E021E030E08CEE9FE00E94BA0D0F9180
:101D700008955F926F927F928F929F92AF92BF92DF
:101D8000CF92DF92EF92FF920F931F93CF93DF9347
:101D90008C01EB014A017A01E81AF90A3901661A45
:101DA000770A512CE614F70480F49E2D8F2D7301D1
:101DB000692E782E892D4901242F382F902F812FBD
:101DC0008B01C92FD82F552453946701D694C794FB
:101DD000AA24AA94BA2CC217D30718F4AA24A3944D
:101DE000B12C8016910680F4DF91CF911F910F9155
:101DF000FF90EF90DF90CF90BF90AF909F908F902B
:101E00007F906F905F900895BE01C801552011F03A
:101E1000B801CE010E94910EC618D708D7FE04C0A3
:101E2000CA0DDB1DCE0CDF1C0F5F1F4FDACF4F92A8
:101E30005F926F927F928F929F92AF92BF92CF925A
:101E4000DF92EF92FF920F931F93CF93DF93EC01FA
:101E50008B0180E2E82EF12C4701861A970A6E0169
:101E600080E4C80ED11CB401C6010E94910EEC1A88
:101E7000FD0A380180E4680E711CB701C3010E949D
:101E8000910E90E4A92EB12C25014C1A5D0AB401E3
:101E9000C2010E94910EA01AB10AB701C5010E94A9
:101EA000910E005E1F4FB801C6010E94910EA096D0
:101EB000BE01C3010E94910EB801C2010E94910EA1
:101EC000BE01C501DF91CF911F910F91FF90EF905F
:101ED000DF90CF90BF90AF909F908F907F906F904A
:101EE0005F904F900C94910E213069F038F02230C1
:101EF00079F0840F911D47FD9A950895860F911DE5
:101F000067FD9A950895841B910947FD939508955F
:101F1000861B910967FD93950895213069F038F08B
:101F2000223079F0861B910967FD93950895840FFF
:101F3000911D47FD9A950895860F911D67FD9A950D
:101F40000895841B910947FD939508953F924F9200
:101F50005F926F927F928F929F92AF92BF92CF9239
:101F6000DF92EF92FF920F931F93CF93DF937C0149
:101F7000162F442EEC01C25ADF4F5E806F806C0139
:101F80008AE8C80ED11C78847518312E711608F4B1
:101F9000372C8C809D800E85202F462D652D8A81C3
:101FA0009B810E94740F5C01202F462D652DC4017A
:101FB0000E948D0FAC01442079F08C85F60180835E
:101FC000232D30E0B501C7010E94BA0D171548F066
:101FD00017196394512CD7CF8B858111F7CF8D853D
:101FE000EDCF150D1E836F82DF91CF911F910F9161
:101FF000FF90EF90DF90CF90BF90AF909F908F9029
:102000007F906F905F904F903F900895DC011A96FB
:102010004C911A97ED91FC911197249130E0042E88
:1020200002C0359527950A94E2F7842F860F8830F1
:1020300068F031961196FC93EE93E49198E0941B2E
:1020400001C0EE0F9A95EAF72E2B88501A968C93C2
:102050008FEF9FEF01C0880F6A95EAF78095822382
:102060000895FC01E60FF11D849190E0982F8827D8
:102070003196E4918E0F911D0895809146109091B4
:1020800047108054934009F4AEC0E0E4F3E0F093CD
:102090004710E0934610E491E0935910E1E4F3E037
:1020A000E491E0935A10E2E4F3E0E491E0935B10F2
:1020B000E3E4F3E0E491E0935C10E4E4F3E0E49122
:1020C000E0935D10E5E4F3E0E491E0935E10E6E474
:1020D000F3E0E491E0935F10E7E4F3E0E491E09350
:1020E0006010E8E4F3E0E491E0936110E9E4F3E0E8
:1020F000E491E0936210EAE4F3E0E491E09363108A
:10210000EBE4F3E0E491E0936410ECE4F3E0E491B9
:10211000E0936510EDE4F3E0E491E0936610EEE403
:10212000F3E0E491E0936710EFE4F3E0E491E093EF
:102130006810E0E5F3E0E491E093691061E180E488
:1021400093E00E94311090936B1080936A1063E1CA
:1021500080E493E00E94311090936D1080936C1096
:1021600065E180E493E00E94311090936F108093BA
:102170006E108091461090914710892BA1F18091AB
:102180006610809372104091671040937310909185
:102190007110992341F1913069F490916810891779
:1021A00014F490937210809169108417E4F4809372
:1021B000731008953091631020916510082E000C63
:1021C000990B622F022E000C770B630F711D37FDE8
:1021D0007A95861797071CF4320F309372102417E4
:1021E00014F4209373100895CF93DF93EC016BAF39
:1021F000EEA9FFA90190F081E02D1995EEA9FFA9A4
:102200000280F381E02DCE01DF91CF911994AF923E
:10221000BF92CF92DF92EF92FF920F931F93CF93D3
:10222000DF9300D01F921F92CDB7DEB78C01DC0187
:10223000DA96AC90DA97DB96EC90DB97ED91FC9117
:10224000B188FE2CD12CC12CD801ED91FC911197B5
:102250008089D8962D913C911C82FD828B83B8E0B9
:102260008B9FC00111248C9DA0018D9D500D9C9DC4
:10227000500D1124240F351F3A832983D801149659
:10228000ED91FC919E012F5F3F4F41E06FE0C8014F
:102290001995F3948F2D8E198A1528F4BFEFCB1A58
:1022A000DB0AFB1488F20F900F900F900F900F90A5
:1022B000DF91CF911F910F91FF90EF90DF90CF9022
:1022C000BF90AF900895089508958F929F92AF9216
:1022D000BF92CF92DF92EF92FF92CF93DF937C0178
:1022E000C62F6C32B0F46A32E8F5683249F16932CF
:1022F00009F444C080E0C034B0F1CF73F701EC0FB3
:10230000F11D868D8F3F71F1C03108F06DC0642FD3
:1023100014C06D3209F456C068F384EB860F823026
:1023200048F7CF73CE0DDF2DD11D8E8D411158C0D2
:1023300061E00E94600560E08E8D0E94320512C04F
:102340002EE1E20EF11CD0E0F70181917F018F3F79
:1023500031F061E0D03108F062E00E946005DF5F9B
:10236000D63191F781E0DF91CF91FF90EF90DF9030
:10237000CF90BF90AF909F908F900895C42ED12C96
:10238000F12CE12C0E9491054B015C01C114D10498
:10239000E104F10439F30E949105681979098A0969
:1023A0009B09683E73408105910580F3F1E0CF1AE7
:1023B000D108E108F10828EE820E23E0921EA11C4C
:1023C000B11CE4CF85E090E0433010F082E090E073
:1023D000880F991F880F991F05970197F1F7C2CFB2
:1023E00062E00E946005BECF0E94090521E0892BB2
:1023F00009F420E0F701218FB5CF2091EF04260FDB
:102400003327331F21323105ECF420913E05FC01C6
:1024100090E080E0243069F082E00895A091EF041C
:102420002191AC0141535B4FA40FB52FB11D2C93EB
:102430000196861798F38091EF04680F6093EF047C
:1024400080E0089581E0089510923E0581E0809338
:102450003D051092180561E084E10E94320561E0BB
:1024600085E10E943205E9EBF0E080818E7F808378
:1024700080818D7F808388E48093B80085E4809399
:10248000BC000895CF93DF9391E09093CE0488230E
:10249000B9F0C091B800D091BA008091BC008A7B9D
:1024A0008093BC0060E084E10E94320560E085E139
:1024B0000E9432050E942412D093BA00C093B80043
:1024C000DF91CF9108950895E09117058091160549
:1024D000E81730F4F0E0E255FB4F808190E008957A
:1024E0008FEF9FEF089590911705809116052FEFBC
:1024F0003FEF981748F4E92FF0E0E255FB4F2081B9
:1025000030E09F5F90931705C901089580911605EB
:1025100090911705891B990B0895CF92DF92EF9246
:10252000FF920F931F93CF93DF937C01CB018A011E
:1025300020914405222389F0EB016B01C40ED51EC6
:10254000CC15DD0569F06991D701ED91FC91019001
:10255000F081E02DC7011995F3CF642F0E94FD1182
:10256000C801DF91CF911F910F91FF90EF90DF9005
:10257000CF900895CF92DF92EF92FF920F931F9327
:10258000CF93DF93EC01962F683109F44BC0B9016A
:10259000993130F49431C9F0973189F080E006C068
:1025A000993109F461C09032C9F781E0DF91CF9190
:1025B0001F910F91FF90EF90DF90CF90089550E022
:1025C00088E396E00E948D12F0CF8C859D85AE85C4
:1025D000BF85892B8A2B8B2B71F4E881F981A58526
:1025E000B0E020EA36E841E050E00E945E276C87C8
:1025F0007D878E879F87109217051092160510927F
:102600004505109267050E94241283E691E190939C
:1026100015058093140584E691E19093130580934A
:102620001205C3CF2C853D854E855F8560E074E241
:1026300084EF90E00E94152720513109410951098A
:1026400056954795379527952093B8008E8990E049
:102650009595879591E09093440580936605109237
:10266000450510926705A1CFD0916705D13208F0DA
:1026700093C0C09166050E9491056B017C01809119
:102680003E05811164C082E080933E0581E0809325
:102690003D058FEF80933C0510923B05D0933A05A2
:1026A000A6E4B5E0EAE1F5E080E0D8137CC0109242
:1026B000190580911905CC0FC82BC093190580917D
:1026C0001805813009F073C0109218050E94910519
:1026D0006B017C01809119058093BB0080914005BE
:1026E00090914105A0914205B0914305892B8A2B19
:1026F0008B2B99F00E9491050091400510914105A6
:1027000020914205309143056C197D098E099F097E
:102710000617170728073907D8F18091BC0083FDF9
:10272000D9CF85EC8093BC000E9491056B017C01A0
:1027300080913E058230E9F180913C058F3F61F147
:1027400080913C05803241F180913C0525C080910B
:10275000400590914105A0914205B0914305892B18
:102760008A2B8B2B09F48BCF0E9491050091400599
:102770001091410520914205309143056C197D0966
:102780008E099F09061717072807390708F077CF22
:1027900080913F050E9442121092450510926705F4
:1027A0001092440502CF9D9191938F5F7ECF85EE6D
:1027B000B9CF8091400590914105A0914205B0911B
:1027C0004305892B8A2B8B2B09F4B2CF0E949105EC
:1027D000009140051091410520914205309143053B
:1027E0006C197D098E099F090617170728073907F5
:1027F00008F09ECFCDCFCF93DF931F92CDB7DEB73A
:102800006983209144052223F9F020916705203245
:1028100058F021E030E0FC013383228390E080E037
:102820000F90DF91CF91089580914505E82FF0E05A
:10283000EA5BFA4F998190838F5F8093450580937F
:10284000670581E090E0ECCF61E0CE0101960E9447
:10285000FD11F7CF2091800530918105820F931FE4
:1028600097FD15C0E0910A02F0910B022485358591
:1028700040AD51AD240F351F44A555A5240F351F7C
:102880008217930724F490938105809380058091AB
:102890008005909181052091690530916A05821724
:1028A00093072CF490936A05809369050895285F37
:1028B0003F4F28173907D4F70897F4CFCF92DF920C
:1028C000EF92FF920F931F93CF93DF936C01EB0175
:1028D0007B01E40EF51E10E000E0CE15DF0561F08F
:1028E0006991D601ED91FC910190F081E02DC60136
:1028F0001995080F191FF1CFC801DF91CF911F91D2
:102900000F91FF90EF90DF90CF9008952F923F921C
:102910004F925F926F927F928F929F92AF92BF92EF
:10292000CF92DF92EF92FF920F931F93CF93DF939B
:1029300000D000D01F921F92CDB7DEB77C016C0192
:1029400024E0C20ED11CFC01E057FF4F0190F08142
:10295000E02DC60119958C018E3F9F4F08F061C094
:10296000370184E9680E711CF3010190F081E02DBC
:10297000FD83EC835701F2E9AF0EB11CF5018080B5
:102980009180970120593F4F3B832A83F901808131
:10299000813009F470C008F45FC0823009F476C059
:1029A000833009F482C0F701EC59FF4F9182808295
:1029B00032962C813D8131832083389780819181AB
:1029C00047969D838C830F3F110511F008F020C1BD
:1029D000B6960136110530F40134110558F0F701AF
:1029E000EE57FF4F808191812C813D81280F391F47
:1029F0003D832C838C819D810196FC0124912111C2
:102A00005FC090E080E0EA81FB812081213009F401
:102A1000C1C108F4B7C1223009F4BEC1233009F4A2
:102A2000C3C181E090E028960FB6F894DEBF0FBED8
:102A3000CDBFDF91CF911F910F91FF90EF90DF906D
:102A4000CF90BF90AF909F908F907F906F905F904E
:102A50004F903F902F900895F701E05AFF4F01905B
:102A6000F081E02DC60119952C813D81280F391F79
:102A70003D832C8398CFF701E05AFF4F0190F081FE
:102A8000E02DC6011995881A990A8DCFF701E05AF1
:102A9000FF4F0190F081E02DC6011995EC81FD8179
:102AA000E81BF90BFD83EC837ECFF701E05AFF4F63
:102AB0000190F081E02DC6011995880E991E73CF03
:102AC000EC81FD8124912017110609F09AC0CF01F5
:102AD0000296009709F495CFF701EE59FF4FF8875A
:102AE000EF83918380831286739660818F819885AE
:102AF0000E940610EF81F8858087F701EA58FF4FA2
:102B000060818F8198850E940610582EEF81F8858C
:102B10008187970122573F4F3D832C83F901908194
:102B2000EF81F885948781E0911180E0EF81F8854D
:102B30008587F701E958FF4F8080682D8F81988540
:102B40000E940610382EF701E858FF4F2080622DB2
:102B50008F8198850E940610982EF701E758FF4F45
:102B60001081612F8F8198850E9406109FEF910F31
:102B700001E010E0980101C0220F9A95EAF7821B4C
:102B80008E83EF81F885408414140CF0C4C08A94BD
:102B9000C80101C0880F8A94EAF7381AF685F983CC
:102BA000950C2A94C80101C0880F2A94EAF7282EB0
:102BB00029182F2F422D632DEF81F8858281938173
:102BC0000E94740F4C01EF81F885938382832981E1
:102BD000422D632D848195810E948D0FEF81F885B0
:102BE00095838483F981F13009F49AC008F44EC0CA
:102BF000F23009F4A4C0F33009F4B5C0BC0194016B
:102C00004FC0FC0184912C813D81280F311DF0CEF5
:102C1000F701EA57FF4F80819181EC81FD81E80F38
:102C2000F91FFD83EC834F0160E0C4010E94311065
:102C30002C813D81280F391F3D832C8362E0C40124
:102C40000E94311034E0830E911C8017910760F3CD
:102C5000EC81FD81849190E0982F88273196E49152
:102C60008E2B009709F4CDCE0817190721F48C811B
:102C70009D8103962ECFEC81FD813296E4912C81CB
:102C80003D812E0F311D3D832C83E2CF9401240D15
:102C9000311D47FC3A95BC01650D711D57FC7A95B5
:102CA0008B01AC01B401C6010E94CF0C882399F1BD
:102CB000EF81F885168217824701F3E78F0E911C8A
:102CC00024E7E20EF11CF40160818F8198850E9457
:102CD0000610082FF70160818F8198850E940610E9
:102CE000182F40E0602FC6010E94A60F41E0612F1F
:102CF000C6010E94A60F61E08F8198850E94061090
:102D00008111EFCFEF81F88587818515E4F2848505
:102D1000EC81FD818083FE818F2FFF0F990B73CE95
:102D20000519110957FC139594012F5F3F4FBC0102
:102D3000640D711D47FC7A95800E911EB1CFA801DC
:102D40004419510947FC539594012F5F3F4F0519D2
:102D5000110957FC1395BC016F5F7F4F800F911FC6
:102D6000840E951E9DCF9401250D311D57FC3A957B
:102D70000419110947FC1395BC016F5F7F4F800F49
:102D8000911F8ECFF50120813181820F931F918396
:102D9000808347CEF301F7CFF50120813181281BD5
:102DA000390B318320833DCEF301F7CF089590E0B6
:102DB00080E008954F925F926F927F928F929F92E0
:102DC000AF92BF92CF92DF92EF92FF926B017C01A4
:102DD00020E030E0A9010E94E42487FF04C0F7FA54
:102DE000F094F7F8F09480909E1090909F10A0902F
:102DF000A010B090A110A7019601C501B4010E94D6
:102E0000E424882309F458C06091B2107091B31083
:102E10008091B4109091B5100E9493252B013C0134
:102E2000A7019601C501B4010E94E9249B01AC01F0
:102E3000C301B2010E9448260E945B256093B21034
:102E40007093B3108093B4109093B510A7019601BE
:102E500060E070E080E090E40E94E9240E94BB26DC
:102E600026E53EE04DE25FE30E94482620E034E2A2
:102E700044E759E40E9448266093B6107093B71057
:102E80008093B8109093B910C0929E10D0929F106A
:102E9000E092A010F092A1108EE790E1FF90EF90E9
:102EA000DF90CF90BF90AF909F908F907F906F906A
:102EB0005F904F900C940B09FF90EF90DF90CF90B4
:102EC000BF90AF909F908F907F906F905F904F904A
:102ED0000895FB0101900020E9F73197AF01461BEF
:102EE000570BDC01ED91FC910280F381E02D1994E8
:102EF0008F929F92AF92BF92EF92FF920F931F9388
:102F0000CF93DF93CDB7DEB7A1970FB6F894DEBFAE
:102F10000FBECDBF7C01FA01CB0119A2223008F40B
:102F20002AE08E010F5D1F4F822E912CB12CA12C17
:102F3000BF01A50194010E941527F901CA016A3059
:102F40000CF5605DD8016E938D01232B242B252B6E
:102F500079F790E080E0109721F0BD01C7010E9451
:102F60006917A1960FB6F894DEBF0FBECDBFDF91F3
:102F7000CF911F910F91FF90EF90BF90AF909F90D6
:102F80008F900895695CDECF6115710511F00C9486
:102F9000691790E080E00895CF92DF92EF92FF9260
:102FA0000F931F93CF93DF930E943D1010927B10DD
:102FB00010927A108AE090E090937D1080937C10BC
:102FC000E0910A02F0910B026081718188EE9FE02E
:102FD0000E94C41710927B1010927A108CE090E03F
:102FE00090937D1080937C1061EB73E088EE9FE0FE
:102FF0000E94C41728E1E22EF12C10E000E032E03C
:10300000C32ED12CC0916905D0916A05C00FD11F84
:10301000E0910A02F0910B028485958520AD31ADD7
:10302000820F931F24A535A5820F931FC817D907B8
:10303000C4F580918005909181058C179D07E1F57D
:1030400081E00E949704C7010A970E94650E80E004
:103050000E949704D0927B10C0927A10F0927D105B
:10306000E0927C10E0910A02F0910B0280AD91ADEC
:10307000C817D9071CF56796CC0FDD1FCE0FDF1FD1
:10308000E881F9816081718188EE9FE00E94C41718
:103090000F5F1F4F8CE0E80EF11C0930110509F09D
:1030A000B1CF81E0DF91CF911F910F91FF90EF9011
:1030B000DF90CF900C94970481E0CACFC81BD90B46
:1030C00084A595A5C817D90714F42796D5CFC81B92
:1030D000D90B2196CC0FDD1FCE0FDF1F68817981C0
:1030E000D3CFAF92BF92CF92DF92EF92FF920F9326
:1030F0001F93CF93DF930E943D1005E310E025E579
:1031000030E04CE050E06CE270E08CEE9FE00E941A
:10311000CF0C811140C025E230E040E450E06BE18B
:1031200070E080E490E00E94B90E20E230E045E4D7
:1031300050E060E270E08BE390E00E94B90EC8E2DC
:10314000D0E0D0937B10C0937A1087E390E0909307
:103150007D1080937C106DEC73E088EE9FE00E9400
:10316000C417D0937B10C0937A108AE090E09093BC
:103170007D1080937C1065ED73E088EE9FE0DF9119
:10318000CF911F910F91FF90EF90DF90CF90BF9064
:10319000AF900C94C41764E170E090E080E00E946E
:1031A000170FCC24C394D12CF12CE12C04E110E0B6
:1031B00098EDA92EBB24BA94CDEEDFEF8FEFE81A7D
:1031C000F80A82E0C80ED11CCC0DDD1DB801C70184
:1031D0000E94170FE016F10608F09DCFD7FDEECF45
:1031E0000150110982E0A80EB11CCA0DDB1DE6CF0B
:1031F0002F923F924F925F926F927F928F929F9207
:10320000AF92BF92CF92DF92EF92FF921F93CF9334
:10321000DF93EC016A017B01722EAB019601CB01B9
:10322000B6010E94FB2660EE73E0811126C04601C4
:103230005701E894B7F82FEF3FEF4FE75FE7C5017D
:10324000B4010E94FB2681110CC02FEF3FEF4FE726
:103250005FE7C501B4010E94E42464EE73E0181630
:1032600064F02FEF3FEF4FE75FE4C701B6010E9424
:1032700043261816B4F468EE73E0CE01DF91CF91C7
:103280001F91FF90EF90DF90CF90BF90AF909F90F5
:103290008F907F906F905F904F903F902F900C9405
:1032A00069172FEF3FEF4FE75FECC701B6010E94B0
:1032B000E42487FDE0CF20E030E0A901C701B6019A
:1032C0000E94E424312C212C87FF0DC0E881F98174
:1032D0000190F081E02D6DE2CE0119951C01F7FA05
:1032E000F094F7F8F09410E060E070E080E09FE385
:1032F000711641F020E030E040E251E40E94E92400
:103300001F5FF6CFA70196010E9478242B013C0194
:103310000E9462254B015C012AE0BC01A401CE01A0
:103320000E9478177C01E20CF31C1123E1F1C50126
:10333000B4010E9491259B01AC01C301B2010E941E
:1033400077244B015C01E881F9810190F081E02D47
:103350006EE2CE011995E80EF91E115020F120E021
:1033600030E040E251E4C501B4010E9448262B013F
:103370003C010E9462254B01B12CA12C2AE0B50131
:10338000A401CE010E947817E80EF91EC501B40110
:103390000E9491259B01AC01C301B2010E947724D8
:1033A0004B015C01DACFC701DF91CF911F91FF90F4
:1033B000EF90DF90CF90BF90AF909F908F907F90D5
:1033C0006F905F904F903F902F9008950E943D1016
:1033D00010927B1010927A108AE090E090937D100A
:1033E00080937C10E0910A02F0910B02809180059D
:1033F0009091810520AD31AD821B930B0796880F0C
:10340000991FE80FF91F0190F081E02D6081718113
:1034100088EE9FE00E94C41710927B1010927A10E1
:103420008CE090E090937D1080937C1061EB73E0D2
:1034300088EE9FE00E94C41785E090E090937B1097
:1034400080937A1088E190E090937D1080937C10B7
:1034500080917F05882381F181E00E9497048EE0AE
:1034600090E00E94650E80E00E94970440918205E2
:1034700050918305609184057091850522E088EE66
:103480009FE00E94F8186CEE73E08BE995E00E94D3
:10349000C417409182055091830560918405709115
:1034A000850522E08BE995E00E94F8186BEF73E048
:1034B0008BE995E00C94691781E0D6CF0C94142821
:1034C000FC01A081B18150962C9182AD38E0839FA0
:1034D000C0011124289FA001299F500D112470E0E4
:1034E00060E080AD91AD0C949D281F93CF93DF9346
:1034F000EC010E9407111BAD8AAD180FE881F9811C
:103500008189181768F0EC81FD8130E020E040E00F
:1035100060E1CE01199580E0DF91CF911F91089570
:10352000FE01E557FF4F8081882319F0CE010E94EC
:10353000601A612FCE010E94F41081E0EDCFCF938D
:10354000DF93EC01FC01E557FF4F8081882319F0E0
:10355000CE010E94601A60E0CE01DF91CF910C9401
:10356000F410CF93DF93EC018CEE9FE00E949F1A42
:10357000FE0119958CEE9FE00E94751A8111F8CF1B
:10358000DF91CF9108958F929F92AF92BF92CF9289
:10359000DF92EF92FF92BC01E0910A02F0910B02E0
:1035A000809180059091810520AD31AD821B930BF8
:1035B0000796880F991FE80FF91F0190F081E02D01
:1035C0008281893509F45CC08A3509F482C0883566
:1035D00009F041C06B01770FEE08FF08C701B60183
:1035E0000E949325209182053091830540918405A6
:1035F000509185050E9478244B015C012091F202D4
:103600003091F3024091F4025091F5020E9443265A
:1036100087FD2DC08092820590928305A09284053B
:10362000B09285058091921090919310A091941082
:10363000B0919510C816D906EA06FB0661F0C09253
:103640009210D0929310E0929410F09295108EE721
:1036500090E10E940B0986EE99E1FF90EF90DF90D8
:10366000CF90BF90AF909F908F900C94B11A109212
:103670008205109283051092840510928505EBCF88
:10368000072E000C880B990B0E9493252091820530
:103690003091830540918405509185050E947824DE
:1036A0006B017C012091E9023091EA024091EB022A
:1036B0005091EC02C701B6010E94432687FDD7CF87
:1036C000C0928205D0928305E0928405F092850530
:1036D000C2CF072E000C880B990B0E9493252091D6
:1036E00082053091830540918405509185050E94A3
:1036F00078246B017C012091E0023091E10240913D
:10370000E2025091E302D6CF85ED8093BC00809118
:10371000400590914105A0914205B091430507965F
:10372000A11DB11D23E0B695A795979587952A957C
:10373000D1F72091BC0024FD03C010923E050895EE
:1037400040914005509141056091420570914305BB
:10375000452B462B472B69F30097A105B10541F096
:103760002AE22A95F1F700C00197A109B109E1CF3A
:1037700080913F050C9442129F92AF92BF92CF92DC
:10378000DF92EF92FF920F931F93CF93DF935C0131
:103790007B018B01D0E0C0E0F80191908F016501C1
:1037A000CC0EDD1EC6010E946124981621F0692D01
:1037B000C6010E9469242196C430D10569F7C7016A
:1037C000DF91CF911F910F91FF90EF90DF90CF90FD
:1037D000BF90AF909F900895CF92DF92EF92FF92AB
:1037E0000F931F93CF93DF9300D01F92CDB7DEB717
:1037F0006B017C0110E000E00C151D05D4F4D7012D
:10380000ED91FD917D0183819481A581B6818983AC
:103810009A83AB83BC8383839483A583B683BE01E1
:103820006F5F7F4F878190850E94BC1B0F5F1F4F8A
:10383000E3CF0F900F900F900F90DF91CF911F91DA
:103840000F91FF90EF90DF90CF9008958F929F920D
:10385000AF92BF92CF92DF92EF92FF920F931F939E
:10386000CF93DF936B014C0110E000E00C151D05B8
:10387000CCF4F401C191D1914F01EF80F8845E0145
:10388000F7E0AF0EB11C2396EC1AFD0AC7018C0FAE
:103890009D1F0E9461248993CA15DB05B9F70F5F4C
:1038A0001F4FE4CFDF91CF911F910F91FF90EF90C9
:1038B000DF90CF90BF90AF909F908F9008951F9210
:1038C0000F920FB60F9211242F933F938F939F93D4
:1038D000AF93BF938091930590919405A091950526
:1038E000B09196053091920523E0230F2D3758F5BE
:1038F0000196A11DB11D209392058093930590938D
:103900009405A0939505B0939605809197059091A5
:103910009805A0919905B0919A050196A11DB11D38
:103920008093970590939805A0939905B0939A0575
:10393000BF91AF919F918F913F912F910F900FBEAB
:103940000F901F90189526E8230F0296A11DB11D18
:10395000D2CF1F920F920FB60F9211240BB60F9277
:103960002F933F934F935F936F937F938F939F9387
:10397000AF93BF93EF93FF938BE995E00E942A06E4
:10398000FF91EF91BF91AF919F918F917F916F9137
:103990005F914F913F912F910F900BBE0F900FBEF3
:1039A0000F901F9018951F920F920FB60F9211242F
:1039B0000BB60F922F938F939F93EF93FF93E0910A
:1039C000AB05F091AC058081E091B105F091B205B5
:1039D00082FD1DC090818091B4058F5F8F7320910F
:1039E000B505821741F0E091B405F0E0E556FA4FD5
:1039F000958F8093B405FF91EF919F918F912F91B7
:103A00000F900BBE0F900FBE0F901F9018958081E6
:103A1000F2CF1F920F920FB60F9211240BB60F9296
:103A20002F933F934F935F936F937F938F939F93C6
:103A3000AF93BF93EF93FF938091B900887F803657
:103A400009F44DC008F040C0883209F4A9C028F537
:103A5000803109F49DC0C8F4882309F4FBC0883084
:103A600009F496C0FF91EF91BF91AF919F918F9113
:103A70007F916F915F914F913F912F910F900BBE6E
:103A80000F900FBE0F901F901895883109F488C0D1
:103A9000803241F780933C0514C0803409F49DC006
:103AA00040F48033B9F38833E9F680933C0585EC24
:103AB000B0C0803509F485C0883509F496C08834D3
:103AC00089F60E94841BCECF883909F48CC038F562
:103AD000883729F050F4883611F0803719F683E0E2
:103AE00080933E051092110557C0883809F47BC0B9
:103AF000803919F0803809F0B5CF809111058032F6
:103B000008F071C0E091110581E08E0F80931105DE
:103B10008091BB00F0E0EF50FB4F80833DC0803BC5
:103B200039F0E0F4803A09F479C0883A09F09ACF84
:103B300084E080933E051092F0041092EF04E0912F
:103B40001405F091150519958091EF0481110FC0AE
:103B500081E08093EF041092CF0409C0803C09F407
:103B6000A6CF883C09F4A3CF883B09F07BCFE09136
:103B7000F00481E08E0F8093F004F0E0E153FB4FFE
:103B800080818093BB009091F0048091EF0429C064
:103B9000809119058093BB0085EC8093BC0062CFB7
:103BA00090913B0580913A05981758F5E0913B05B7
:103BB00081E08E0F80933B05F0E0E65EFA4F808156
:103BC000E9CFE0913B0581E08E0F80933B0580912A
:103BD000BB00F0E0E65EFA4F808390913B05809158
:103BE0003A059817C8F285E8D8CFE0913B0581E007
:103BF0008E0F80933B058091BB00F0E0E65EFA4FAC
:103C0000808380913D0581115CCF81E08093180510
:103C100084EA8093BC0010923E0524CF85EC80930B
:103C2000BC0010923E0580911105803230F4E09185
:103C30001105F0E0EF50FB4F10826091110570E02C
:103C4000E0911205F091130581EF94E0199510921F
:103C5000110508CF10923C0534CF0F931F93CF93DB
:103C6000DF93FC01718360831586148615A614A664
:103C700011AE10AEDA01EC012296AC01445F5F4F49
:103C80008D919D91009751F08993999384859585A5
:103C9000019695878487C417D50791F7D901EF015D
:103CA0002E969F01245D3F4F8D919D91009751F07D
:103CB0008993999384A595A5019695A784A7C21782
:103CC000D30791F7D801EF01AE969F01285C3F4FD3
:103CD0008D919D91009751F08993999380AD91AD0D
:103CE000019691AF80AFC217D30791F7DF91CF91C3
:103CF0001F910F910895CF92DF92EF92FF920F9351
:103D00001F93CF9310929E0510929D0588EE93E02D
:103D1000A0E0B0E080939F059093A005A093A1053B
:103D2000B093A2052FE533E030939C0520939B05CB
:103D300025EC30E03093A8052093A70524EC30E073
:103D40003093AA052093A90520EC30E03093AC0510
:103D50002093AB0521EC30E03093AE052093AD0508
:103D600022EC30E03093B0052093AF0526EC30E034
:103D70003093B2052093B1051092B4051092B505A9
:103D80001092B6051092B70510923B0610923A06B3
:103D900080933C0690933D06A0933E06B0933F0669
:103DA00081E793E090933906809338068FE893E09B
:103DB00090937F1080937E1081E080938510109205
:103DC0008E1010928F1010929010109291101092ED
:103DD00092101092931010929410109295101092CD
:103DE00096101092971010929810109299101092AD
:103DF0009A1010929B1010929C1010929D1010928D
:103E00009E1010929F101092A0101092A110C12C21
:103E1000D12C80E8E82E8FE3F82EC092A210D09229
:103E2000A310E092A410F092A510109281101092AD
:103E30008210109283101092841081E090E0909391
:103E4000AB108093AA108FEF8093AD101092A61044
:103E50001092A7101092A8101092A9108BE08093D6
:103E600086108AE08093871084E08093881085E034
:103E7000809389101092AC101092B2101092B3106F
:103E80001092B4101092B5101092B6101092B71094
:103E90001092B8101092B9101092BA101092BB1074
:103EA0001092BC101092BD10C092BE10D092BF10E4
:103EB000E092C010F092C1101092801010928A10FF
:103EC00010928B1010928C1010928D108EE790E152
:103ED0000E94EA06C701B6010E94DA16A701960100
:103EE00060919A1070919B1080919C1090919D1000
:103EF0000E94E424882319F1C0929A10D0929B105A
:103F0000E0929C10F0929D1080E094E2A4E7B9E466
:103F10008093BE109093BF10A093C010B093C110B7
:103F20008091B2109091B310A091B410B091B510DF
:103F3000181619061A061B0614F40E94640A109239
:103F4000EB0F1092EA0F8BE194E09093791080933D
:103F5000781010927B1010927A1010927D101092AF
:103F60007C101092041083E893E09093E90F809303
:103F7000E80F1092ED0F1092EC0F109201101092BA
:103F8000F80F1092F90F1092FA0F1092FB0F8FEFAB
:103F90008093021080930610EAE0F0E180E290E165
:103FA000CFEFC1938E179F07E1F782E19BE09093DB
:103FB000F10F8093F00F83E09CE09093F30F8093D8
:103FC000F20F8AEB92E19093F50F8093F40F85E660
:103FD00091E19093F70F8093F60F30E020E040E0FE
:103FE00069E08CEE9FE00E94120B10924710109235
:103FF000461085E294E0909321108093201084E491
:1040000096E0909325108093241080E180932610F1
:104010001092271010925510109275101092711076
:1040200081E080937610809377108BEA93E09093F1
:104030002310809322108CEE9FE00E947D0C109242
:104040003F1010923E1010924310109242108FEFCA
:104050009FEF909341108093401090934510809370
:104060004410E0912210F09123100280F381E02DA2
:104070008CEE9FE0199584E994E090934910809329
:10408000481010925810C0931510C0931610C0938A
:1040900017108EEF93E08093F10224E030E030932C
:1040A000F7022093F60240E054E04093E80228E053
:1040B00030E03093EE022093ED0222E034E02093D2
:1040C000DF026CE070E07093E5026093E40280939D
:1040D000D60260E170E07093DC026093DB024093F3
:1040E000CD0264E170E07093D3026093D20220931A
:1040F000C40268E170E07093CA026093C9028093C1
:10410000BB026CE170E07093C1026093C0028093C7
:10411000B20260E270E07093B8026093B7028093DD
:10412000A90264E270E07093AF026093AE02409324
:10413000A00268E270E07093A6026093A50220934B
:1041400097026CE270E070939D0260939C028093F2
:104150008E0260E370E07093940260939302809308
:10416000850264E370E070938B0260938A0280930F
:104170007C0280E490E090938202809381024093DD
:10418000730284E490E09093790280937802209304
:104190006A0288E490E09093700280936F020CEAC8
:1041A0001FE02EE532E044E652E064E074E08EEA7F
:1041B0009FE00E942D1E00E71FE024E532E04AE563
:1041C00052E06BE074E082E79FE00E942D1E04E362
:1041D0001FE02CE432E040E552E062E174E086E367
:1041E0009FE00E942D1E08EF1EE020E332E048E42D
:1041F00052E06DE174E08AEF9EE00E942D1E04E221
:1042000012E02CEB3EE04CE252E06EE274E08EEB0A
:104210009EE00E942D1E06E112E020E83EE040E212
:1042200052E06DE374E082E89EE00E942D1E0CE0F7
:1042300012E024E43EE042E152E066E474E086E409
:104240009EE00E942D1ECF911F910F91FF90EF9045
:10425000DF90CF900895CF93DF93CDB7DEB760970F
:104260000FB6F894DEBF0FBECDBF789484B58260E0
:1042700084BD84B5816084BD85B5826085BD85B50A
:10428000816085BD80916E00816080936E00109288
:104290008100809181008260809381008091810003
:1042A0008160809381008091800081608093800094
:1042B0008091B10084608093B1008091B0008160F2
:1042C0008093B000809191008260809391008091F2
:1042D0009100816080939100809190008160809333
:1042E00090008091A10082608093A1008091A10044
:1042F00081608093A1008091A00081608093A000E4
:10430000809121018260809321018091210181604F
:104310008093210180912001816080932001809110
:104320007A00846080937A0080917A008260809322
:104330007A0080917A00816080937A0080917A007F
:10434000806880937A001092C100E091AB05F091F3
:10435000AC0582E08083E091A705F091A80510826A
:10436000E091A905F091AA058FEC80831092B30526
:10437000E091AF05F091B00586E08083E091AD0556
:10438000F091AE05808180618083E091AD05F09170
:10439000AE05808188608083E091AD05F091AE0527
:1043A000808180688083E091AD05F091AE058081C9
:1043B0008F7D808362E081E30E94600562E083E399
:1043C0000E94600562E085E30E94600520E030E025
:1043D0004AE754E460919A1070919B1080919C1070
:1043E00090919D100E94E424882319F180E090E0D0
:1043F000AAE7B4E480939A1090939B10A0939C102A
:10440000B0939D108093BE109093BF10A093C010E6
:10441000B093C1108091B2109091B310A091B410DC
:10442000B091B510181619061A061B0614F40E944E
:10443000640A60E070E08AEF93E40E94DA16E0918B
:10444000F00FF091F10F30E020E040E06AE08CEEF8
:104450009FE019958CEE9FE00E949F1A8CEE9FE0E2
:104460000E94751A8111FACF60E08CEE9FE00E94E5
:10447000F410E091F00FF091F10F30E020E040E017
:104480006BE08CEE9FE0199581E798E10E94B11AEC
:1044900063E070E080E092E00E94261C1D821E8294
:1044A0001F8218861092F2021092F3021092F40208
:1044B0001092F502BE016B5F7F4F8091F6029091E2
:1044C000F7020E94BC1B19861A861B861C86109256
:1044D000E9021092EA021092EB021092EC02BE0185
:1044E000675F7F4F8091ED029091EE020E94BC1BAE
:1044F0001D861E861F86188A1092E0021092E10225
:104500001092E2021092E302BE01635F7F4F80913E
:10451000E4029091E5020E94BC1B80910A029091F6
:104520000B02FC0164A575A50E960E94261C8CEC5E
:1045300097E10E94B11ABB24B39472E0C72ED12C2C
:1045400085E30E940905892B09F06BC0412C512C91
:10455000320185E30E940905892B09F4E0C02FB7D9
:10456000F8948091930590919405A0919505B09150
:1045700096052FBF84199509A609B709C397A10508
:10458000B10538F38091860590918705009709F071
:1045900014C100910A0210910B02F80120AD31AD57
:1045A0008091800590918105E4A4F5A4821793077A
:1045B0000CF0C1C0FC017796EE0FFF1FE00FF11F5A
:1045C0008080918080910802909109028930910544
:1045D00064F401969093090280930802880F991F52
:1045E000FC01E559FA4F11830083B701C8010E960B
:1045F0000E94EC1B90920B0280920A02F40164A5C7
:1046000075A5C4010E960E94261C10928105109279
:10461000800510926A05109269058CEC97E10E9462
:10462000B11A81E30E940905892BC9F48091910593
:10463000811115C0B09291052FB7F8948091930520
:1046400090919405A0919505B09196052FBF809308
:104650008D0590938E05A0938F05B093900583E30D
:104660000E940905892BC9F480918C05811115C020
:10467000B0928C052FB7F894809193059091940592
:10468000A0919505B09196052FBF809388059093D2
:104690008905A0938A05B0938B05809191058823A5
:1046A000D9F180918C058823B9F140918D05509105
:1046B0008E0560918F05709190058091880590918D
:1046C0008905A0918A05B0918B05481759076A079B
:1046D0007B0708F0C8C080918605909187058130DE
:1046E000910509F4D7C008F4B0C0029709F4B6C028
:1046F0001092910510928C0510928D0510928E05E6
:1047000010928F05109290051092880510928905DD
:1047100010928A0510928B050E94B90611CF8FB7AF
:10472000F894409093055090940560909505709092
:1047300096058FBF0ECF821B930B8E159F053CF401
:10474000D0928705C092860586EE99E168CFFC017C
:10475000EE19FF093196EE0FFF1FE00FF11F67E51D
:1047600074E0808191810E94A428892B09F059CF9F
:10477000809108029091090297FD4FCFB701C801BF
:104780000E960E94EC1B80910802909109029C01F8
:10479000215031093093090220930802880F991F94
:1047A000FC01E559FA4F8081918190930B0280932F
:1047B0000A02FC0164A575A525CF029709F031CF47
:1047C000E0910A02F0910B028091800590918105A1
:1047D00020AD31AD821B930B0796880F991FE80F10
:1047E000F91F0190F081E02D80917F058823F1F081
:1047F00010927F05109287051092860580918205A0
:1048000090918305A0918405B091850589839A8351
:10481000AB83BC8383839483A583B683BE016F5F20
:104820007F4F878190850E94BC1BF7CEB0927F0599
:1048300083819481A581B6818093820590938305BD
:10484000A0938405B09385057FCF81E090E00E941E
:104850002A148CEC97E10E94B11A4ACF81E090E0D3
:104860000E94C31A45CF84179507A607B70708F01B
:104870003FCF80918605909187058130910551F059
:1048800030F0029709F034CF8FEF9FEFE9CF8FEF31
:104890009FEFDDCF20E030E040E85FE360918205EC
:1048A0007091830580918405909185050E947724FD
:1048B00060938205709383058093840590938505AA
:1048C00017CFF999FECF92BD81BDF89A992780B58F
:1048D0000895262FF999FECF1FBA92BD81BD20BD44
:1048E0000FB6F894FA9AF99A0FBE019608955058A7
:1048F000BB27AA270E948F240C9409260E94FB251F
:1049000038F00E94022620F039F49F3F19F426F473
:104910000C94F8250EF4E095E7FB0C94F225E92FB2
:104920000E941A2658F3BA1762077307840795077F
:1049300020F079F4A6F50C943C260EF4E0950B2EAD
:10494000BA2FA02D0B01B90190010C01CA01A001E1
:104950001124FF27591B99F0593F50F4503E68F13C
:104960001A16F040A22F232F342F4427585FF3CF7D
:10497000469537952795A795F0405395C9F77EF44E
:104980001F16BA0B620B730B840BBAF09150A1F097
:10499000FF0FBB1F661F771F881FC2F70EC0BA0F1D
:1049A000621F731F841F48F4879577956795B795A5
:1049B000F7959E3F08F0B0CF9395880F08F09927A0
:1049C000EE0F9795879508950E94CE2508F481E013
:1049D00008950E94FD240C9409260E94022658F096
:1049E0000E94FB2540F029F45F3F29F00C94F2254A
:1049F00051110C943D260C94F8250E941A2668F358
:104A00009923B1F3552391F3951B550BBB27AA2787
:104A100062177307840738F09F5F5F4F220F331FC1
:104A2000441FAA1FA9F335D00E2E3AF0E0E832D089
:104A300091505040E695001CCAF72BD0FE2F29D08C
:104A4000660F771F881FBB1F261737074807AB075E
:104A5000B0E809F0BB0B802DBF01FF2793585F4FD3
:104A60003AF09E3F510578F00C94F2250C943D26C7
:104A70005F3FE4F3983ED4F3869577956795B795B5
:104A8000F7959F5FC9F7880F911D9695879597F9C0
:104A90000895E1E0660F771F881FBB1F6217730739
:104AA0008407BA0720F0621B730B840BBA0BEE1F4E
:104AB00088F7E09508950E9462256894B1110C94DE
:104AC0003D2608950E94222688F09F5798F0B92F1E
:104AD0009927B751B0F0E1F0660F771F881F991F33
:104AE0001AF0BA95C9F714C0B13091F00E943C2673
:104AF000B1E008950C943C26672F782F8827B85F83
:104B000039F0B93FCCF3869577956795B395D9F78A
:104B10003EF490958095709561957F4F8F4F9F4F94
:104B20000895E89409C097FB3EF4909580957095A0
:104B300061957F4F8F4F9F4F9923A9F0F92F96E9E9
:104B4000BB279395F695879577956795B795F1115E
:104B5000F8CFFAF4BB0F11F460FF1BC06F5F7F4FFB
:104B60008F4F9F4F16C0882311F096E911C077230D
:104B700021F09EE8872F762F05C0662371F096E816
:104B8000862F70E060E02AF09A95660F771F881FE5
:104B9000DAF7880F9695879597F90895990F000889
:104BA000550FAA0BE0E8FEEF16161706E807F907FF
:104BB000C0F012161306E407F50798F0621B730B9A
:104BC000840B950B39F40A2661F0232B242B252B1B
:104BD00021F408950A2609F4A140A6958FEF811DBE
:104BE000811D089597F99F6780E870E060E008955F
:104BF0009FEF80EC089500240A94161617061806F5
:104C00000906089500240A941216130614060506D0
:104C10000895092E0394000C11F4882352F0BB0F61
:104C200040F4BF2B11F460FF04C06F5F7F4F8F4FC4
:104C30009F4F089557FD9058440F551F59F05F3FFF
:104C400071F04795880F97FB991F61F09F3F79F0AE
:104C500087950895121613061406551FF2CF469530
:104C6000F1DF08C0161617061806991FF1CF8695B2
:104C70007105610508940895E894BB276627772796
:104C8000CB0197F908950E94CE2508F48FEF08957F
:104C90000E945B260C9409260E94FB2538F00E9496
:104CA000022620F0952311F00C94F2250C94F8259F
:104CB00011240C943D260E941A2670F3959FC1F38F
:104CC000950F50E0551F629FF001729FBB27F00DBA
:104CD000B11D639FAA27F00DB11DAA1F649F66270F
:104CE000B00DA11D661F829F2227B00DA11D621F5E
:104CF000739FB00DA11D621F839FA00D611D221F18
:104D0000749F3327A00D611D231F849F600D211DFB
:104D1000822F762F6A2F11249F5750409AF0F1F07E
:104D200088234AF0EE0FFF1FBB1F661F771F881FE7
:104D300091505040A9F79E3F510580F00C94F22508
:104D40000C943D265F3FE4F3983ED4F38695779527
:104D50006795B795F795E7959F5FC1F7FE2B880F8D
:104D6000911D9695879597F9089519F416F40C946A
:104D7000F8250C9400270E942226B8F39923C9F342
:104D8000B6F39F57550B87FF0E940E270024A0E61D
:104D900040EA900180585695979528F4805C660FFC
:104DA000771F881F20F026173707480730F4621B4B
:104DB000730B840B202931294A2BA695179407944D
:104DC000202531254A2758F7660F771F881F20F0C6
:104DD00026173707480730F4620B730B840B200D3E
:104DE000311D411DA09581F7B901842F9158880F7D
:104DF0009695879508950E94CE25880B990B089566
:104E00009F3F31F0915020F4879577956795B7953E
:104E1000880F911D9695879597F908959150504068
:104E2000660F771F881FD2F70895A1E21A2EAA1BDA
:104E3000BB1BFD010DC0AA1FBB1FEE1FFF1FA2174A
:104E4000B307E407F50720F0A21BB30BE40BF50B47
:104E5000661F771F881F991F1A9469F760957095D0
:104E6000809590959B01AC01BD01CF010895052E61
:104E700097FB1EF400940E944E2757FD07D00E9416
:104E8000152707FC03D04EF40C944E2750954095FF
:104E9000309521953F4F4F4F5F4F089590958095E6
:104EA000709561957F4F8F4F9F4F0895EE0FFF1FB5
:104EB000881F8BBF0790F691E02D19940E946927F7
:104EC000A59F900DB49F900DA49F800D911D11245E
:104ED0000895A29FB001B39FC001A39F700D811DD3
:104EE0001124911DB29F700D811D1124911D0895F3
:104EF0000F931F93CF93DF938230910510F482E0DC
:104F000090E0E091C410F091C51030E020E0B0E0F6
:104F1000A0E0309799F42115310509F44AC0281B07
:104F2000390B24303105D8F58A819B8161157105D3
:104F300089F1FB0193838283FE0111C0408151817D
:104F40000281138148175907E0F04817590799F46F
:104F5000109761F012960C93129713961C93329649
:104F6000CF01DF91CF911F910F9108950093C4104D
:104F70001093C510F4CF2115310551F04217530796
:104F800038F0A901DB019A01BD01DF01F801C1CFB1
:104F9000EF01F9CF9093C5108093C410CDCFFE01DF
:104FA000E20FF31F819391932250310939832883B3
:104FB000D7CF2091C2103091C310232B41F4209100
:104FC000FA023091FB023093C3102093C21020915B
:104FD000F8023091F9022115310541F42DB73EB7A1
:104FE0004091FC025091FD02241B350BE091C21050
:104FF000F091C310E217F307A0F42E1B3F0B281704
:10500000390778F0AC014E5F5F4F2417350748F041
:105010004E0F5F1F5093C3104093C2108193919322
:105020009FCFF0E0E0E09CCFCF93DF930097E9F0D3
:10503000FC01329713821282A091C410B091C51066
:10504000ED0130E020E01097A1F420813181820F42
:10505000931F2091C2103091C3102817390709F00F
:1050600061C0F093C310E093C210DF91CF91089517
:10507000EA01CE17DF07E8F54A815B819E01411501
:105080005105B1F7E901FB83EA8349915991C40FB6
:10509000D51FEC17FD0761F4808191810296840F82
:1050A000951FE90199838883828193819B838A83F9
:1050B000F0E0E0E012968D919C9113970097B9F57E
:1050C0002D913C911197CD010296820F931F209153
:1050D000C2103091C3102817390739F6309751F5AF
:1050E0001092C5101092C410B093C310A093C210B8
:1050F000BCCFD383C28340815181840F951FC817D1
:10510000D90761F44E5F5F4F88819981480F591F1D
:10511000518340838A819B8193838283211531054A
:1051200009F0B0CFF093C510E093C4109ECFFD01FD
:10513000DC01C0CF13821282D7CFDC0101C06D9396
:1051400041505040E0F70895FB01DC018D91019042
:1051500080190110D9F3990B0895F894FFCFEF024D
:10516000E602DD020000FFFF460EBE0E820E0000CA
:105170005C040000FA0E360FAE0F720F00005704E9
:105180000000360FAE0F720F000057040000EF0250
:10519000E602DD02D402CB02C2029E0295027A022E
:1051A00071026802000057040000B90200005704B1
:1051B0000000A7028302000057040000B0028C0226
:1051C00000005704000063040000000000000066B7
:1051D000040000000000000069040000000000005E
:1051E000006C04000000000000006C0400000000DF
:1051F0000000006F040000000000000072040000C6
:1052000000000000007504000000000000007504AC
:105210000000000000000075040000000000000015
:105220007804000000000000007B04000000000083
:1052300000007E0400000000000000810400000067
:10524000000000008404000000000000008704004B
:105250000000000000000000C61080001815A01516
:10526000C019FF1815A115C819FF1815AE19FF1898
:1052700015AF19FF1815AE15DC16001581162F1580
:105280002015A015C015A8167F15D5165015D916CE
:105290002215DB163515B015DA161215A415A61948
:1052A000FF0001140A6464646400093D00000428DE
:1052B000961010000080008000000000004C06B630
:1052C00005E30599061406F205060600000000FB3A
:1052D000138D12D716631286127312641200000027
:1052E0000086145E14D716D616000000001E07EACA
:1052F00006930A5E1A0B098308C1086D083B081A59
:1053000008E607C5076F073C077D0C080D6D0C5FAD
:105310005F5F5F5F5F5F5F5F5F5F5F5F5F5F5F5F9D
:105320005F5F5F5F5F5F5F5F5F5F004172647569D2
:105330006E6F004C6F6164696E672E2E2E006E6179
:105340006E00696E66006F7666004E657720706F3E
:10535000736974696F6E3A20000D0A005800590095
:105360005A005065616B3535005065616B36300011
:1053700053696E676C655369646500476C6F626161
:105380006C20506F736974696F6E730053656C6540
:1053900063742050726F6772616D00536574746935
:1053A0006E67730042617272656C6C6F61646572E6
:1053B00020332E30004261636B00486F6D696E6769
:1053C000005A34005934005834005833005A32001F
:1053D0005932005832005A31005931005831005AC0
:0853E000300059300058300084
:020000040003F7
:10E000000D9489F10D94B2F10D94B2F10D94B2F129
:10E010000D94B2F10D94B2F10D94B2F10D94B2F1F0
:10E020000D94B2F10D94B2F10D94B2F10D94B2F1E0
:10E030000D94B2F10D94B2F10D94B2F10D94B2F1D0
:10E040000D94B2F10D94B2F10D94B2F10D94B2F1C0
:10E050000D94B2F10D94B2F10D94B2F10D94B2F1B0
:10E060000D94B2F10D94B2F10D94B2F10D94B2F1A0
:10E070000D94B2F10D94B2F10D94B2F10D94B2F190
:10E080000D94B2F10D94B2F10D94B2F10D94B2F180
:10E090000D94B2F10D94B2F10D94B2F10D94B2F170
:10E0A0000D94B2F10D94B2F10D94B2F10D94B2F160
:10E0B0000D94B2F10D94B2F10D94B2F10D94B2F150
:10E0C0000D94B2F10D94B2F10D94B2F10D94B2F140
:10E0D0000D94B2F10D94B2F10D94B2F10D94B2F130
:10E0E0000D94B2F141546D656761323536300041AF
:10E0F000726475696E6F206578706C6F72657220DE
:10E1000073746B3530305632206279204D4C530099
:10E11000426F6F746C6F616465723E004875683F52
:10E1200000436F6D70696C6564206F6E203D200048
:10E130004350552054797065202020203D20005FF9
:10E140005F4156525F415243485F5F3D2000415658
:10E1500052204C696243205665723D20004743437C
:10E160002056657273696F6E203D20004350552024
:10E1700049442020202020203D20004C6F7720663D
:10E18000757365202020203D20004869676820665F
:10E190007573652020203D200045787420667573D6
:10E1A00065202020203D20004C6F636B2066757336
:10E1B000652020203D20004D617220203720323024
:10E1C000313300312E362E3800342E332E350056A2
:10E1D00023202020414444522020206F7020636F70
:10E1E00064652020202020696E73747275637469E1
:10E1F0006F6E2061646472202020496E74657272B3
:10E20000757074006E6F20766563746F7200726A49
:10E210006D702020006A6D70200057686174207056
:10E220006F72743A00506F7274206E6F7420737541
:10E2300070706F72746564004D7573742062652030
:10E2400061206C6574746572002000577269747483
:10E25000696E672045450052656164696E672045B7
:10E26000450045452065727220636E743D00504F35
:10E27000525400303D5A65726F2061646472003FF1
:10E280003D43505520737461747300403D454550C3
:10E29000524F4D207465737400423D426C696E6B41
:10E2A000204C454400453D44756D70204545505215
:10E2B0004F4D00463D44756D7020464C415348001B
:10E2C000483D48656C70004C3D4C69737420492F83
:10E2D0004F20506F72747300513D51756974005234
:10E2E0003D44756D702052414D00563D73686F7707
:10E2F00020696E7465727275707420566563746FF0
:10E30000727300593D506F727420626C696E6B00BD
:10E310002A0011241FBECFEFD1E2DEBFCDBF01E046
:10E320000CBF12E0A0E0B2E0EEE1FDEF03E00BBFB6
:10E3300002C007900D92A030B107D9F712E0A0E01B
:10E34000B2E001C01D92AE30B107E1F70F9460F367
:10E350000D948DFE01E20EBF0FEF0DBF11241FBE05
:10E360000D9460F30D9400F020E030E040ED57E0B4
:10E3700005C0FA013197F1F72F5F3F4F2817390792
:10E38000C0F308959C01260F311DC901A0E0B0E043
:10E390002F5F3F4FABBFFC018791882361F08093D3
:10E3A000C6008091C00086FFFCCF8091C0008064D1
:10E3B0008093C000EACF08958DE08093C6008091DD
:10E3C000C00086FFFCCF8091C00080648093C000B5
:10E3D0008AE08093C6008091C00086FFFCCF8091C8
:10E3E000C00080648093C00008950F94C2F10F9420
:10E3F000DCF10895FC019081992359F09093C600B7
:10E400008091C00086FFFCCF8091C0008064809323
:10E41000C0003196992379F70895282F982F929567
:10E420009F70892F805D8A3308F0895F8093C600D2
:10E430008091C00086FFFCCF8091C00080648093F3
:10E44000C000822F8F70982F905D9A3308F0995FEB
:10E450009093C6008091C00086FFFCCF8091C000E1
:10E4600080648093C00008959C01FB01853691056E
:10E470001CF46330710594F0C90164E670E00F94F8
:10E480002EFE605D7F4F6093C6008091C00086FFC6
:10E49000FCCF8091C00080648093C0002B30310598
:10E4A00014F43297B4F0C90164E670E00F942EFEC4
:10E4B0006AE070E00F942EFE605D7F4F6093C600AF
:10E4C0008091C00086FFFCCF8091C0008064809363
:10E4D000C000C9016AE070E00F942EFEC0968093E0
:10E4E000C6008091C00086FFFCCF8091C000806490
:10E4F0008093C00008951F93182F8EE692EE60E07F
:10E500000F94C2F11093C6008091C00086FFFCCF2B
:10E510008091C00080648093C0000F94DCF11F9153
:10E5200008952F923F924F925F926F927F928F92B7
:10E530009F92AF92BF92CF92DF92EF92FF920F9392
:10E540001F93DF93CF93CDB7DEB762970FB6F894E2
:10E55000DEBF0FBECDBF382E622ECA01DB015C01CB
:10E560006D01772420E2222E2E010894411C511CBB
:10E570008BC081E0A81680E0B80681E0C80680E084
:10E58000D80628F0C601AA27BB270F940DF2BB2797
:10E59000AD2D9C2D8B2D0F940DF28A2D0F940DF225
:10E5A0002092C6008091C00086FFFCCF8091C00001
:10E5B00080648093C0009DE29093C6008091C0006B
:10E5C00086FFFCCF8091C00080648093C0002092C1
:10E5D000C6008091C00086FFFCCF8091C00080649F
:10E5E0008093C00019828601750188249924A1E0D6
:10E5F0003A1651F03A1620F0B2E03B1661F409C029
:10E600000BBFF701779007C0C7010F9477FE782EF4
:10E6100002C0F7017080872D0F940DF22092C60082
:10E620008091C00086FFFCCF8091C0008064809301
:10E63000C000872D8052F401EF70F0708F3520F408
:10E64000E40DF51D708204C0E40DF51D8EE280839B
:10E650000894E11CF11C011D111D0894811C911CE2
:10E6600090E18916910409F0C2CF80E190E0A0E02A
:10E67000B0E0A80EB91ECA1EDB1E198AC2010F9493
:10E68000FAF10F94DCF16A94662009F072CF629679
:10E690000FB6F894DEBF0FBECDBFCF91DF911F91B3
:10E6A0000F91FF90EF90DF90CF90BF90AF909F9031
:10E6B0008F907F906F905F904F903F902F90089534
:10E6C0002F923F924F925F926F927F928F929F9282
:10E6D000AF92BF92CF92DF92EF92FF920F931F9370
:10E6E000DF93CF93CDB7DEB7CD53D1400FB6F894BB
